{
	"WorkStorage.sol": {
		"WorkStorage": {
			"abi": [
				{
					"inputs": [
						{
							"internalType": "uint256",
							"name": "_myFavoriteNumber",
							"type": "uint256"
						},
						{
							"internalType": "string",
							"name": "_name",
							"type": "string"
						},
						{
							"internalType": "string",
							"name": "_color",
							"type": "string"
						}
					],
					"name": "addMorePersons",
					"outputs": [],
					"stateMutability": "nonpayable",
					"type": "function"
				},
				{
					"inputs": [
						{
							"internalType": "uint256",
							"name": "_newCoolNumber",
							"type": "uint256"
						}
					],
					"name": "changer",
					"outputs": [],
					"stateMutability": "nonpayable",
					"type": "function"
				},
				{
					"inputs": [],
					"name": "display",
					"outputs": [
						{
							"internalType": "uint256",
							"name": "",
							"type": "uint256"
						}
					],
					"stateMutability": "view",
					"type": "function"
				},
				{
					"inputs": [
						{
							"internalType": "uint256",
							"name": "",
							"type": "uint256"
						}
					],
					"name": "listOfPersons",
					"outputs": [
						{
							"internalType": "uint256",
							"name": "myFavoriteNumber",
							"type": "uint256"
						},
						{
							"internalType": "string",
							"name": "name",
							"type": "string"
						},
						{
							"internalType": "string",
							"name": "color",
							"type": "string"
						}
					],
					"stateMutability": "view",
					"type": "function"
				}
			],
			"devdoc": {
				"kind": "dev",
				"methods": {},
				"version": 1
			},
			"evm": {
				"assembly": "    /* \"WorkStorage.sol\":81:709  contract WorkStorage {... */\n  mstore(0x40, 0x80)\n    /* \"WorkStorage.sol\":130:131  7 */\n  0x07\n    /* \"WorkStorage.sol\":109:131  uint256 coolNumber = 7 */\n  0x00\n  sstore\n    /* \"WorkStorage.sol\":81:709  contract WorkStorage {... */\n  callvalue\n  dup1\n  iszero\n  tag_1\n  jumpi\n  revert(0x00, 0x00)\ntag_1:\n  pop\n  dataSize(sub_0)\n  dup1\n  dataOffset(sub_0)\n  0x00\n  codecopy\n  0x00\n  return\nstop\n\nsub_0: assembly {\n        /* \"WorkStorage.sol\":81:709  contract WorkStorage {... */\n      mstore(0x40, 0x80)\n      callvalue\n      dup1\n      iszero\n      tag_1\n      jumpi\n      revert(0x00, 0x00)\n    tag_1:\n      pop\n      jumpi(tag_2, lt(calldatasize, 0x04))\n      shr(0xe0, calldataload(0x00))\n      dup1\n      0x0c1b7c1e\n      eq\n      tag_3\n      jumpi\n      dup1\n      0x510f17c5\n      eq\n      tag_4\n      jumpi\n      dup1\n      0x802b791e\n      eq\n      tag_5\n      jumpi\n      dup1\n      0xf49fdc18\n      eq\n      tag_6\n      jumpi\n    tag_2:\n      revert(0x00, 0x00)\n        /* \"WorkStorage.sol\":431:515  function display() public view returns(uint256) {... */\n    tag_3:\n      tag_7\n      tag_8\n      jump\t// in\n    tag_7:\n      mload(0x40)\n      tag_9\n      swap2\n      swap1\n      tag_10\n      jump\t// in\n    tag_9:\n      mload(0x40)\n      dup1\n      swap2\n      sub\n      swap1\n      return\n        /* \"WorkStorage.sol\":272:301  Person[] public listOfPersons */\n    tag_4:\n      tag_11\n      0x04\n      dup1\n      calldatasize\n      sub\n      dup2\n      add\n      swap1\n      tag_12\n      swap2\n      swap1\n      tag_13\n      jump\t// in\n    tag_12:\n      tag_14\n      jump\t// in\n    tag_11:\n      mload(0x40)\n      tag_15\n      swap4\n      swap3\n      swap2\n      swap1\n      tag_16\n      jump\t// in\n    tag_15:\n      mload(0x40)\n      dup1\n      swap2\n      sub\n      swap1\n      return\n        /* \"WorkStorage.sol\":523:706  function addMorePersons(uint256 _myFavoriteNumber, string memory _name, string memory _color ) public {... */\n    tag_5:\n      tag_17\n      0x04\n      dup1\n      calldatasize\n      sub\n      dup2\n      add\n      swap1\n      tag_18\n      swap2\n      swap1\n      tag_19\n      jump\t// in\n    tag_18:\n      tag_20\n      jump\t// in\n    tag_17:\n      stop\n        /* \"WorkStorage.sol\":310:404  function changer(uint256 _newCoolNumber) public {... */\n    tag_6:\n      tag_21\n      0x04\n      dup1\n      calldatasize\n      sub\n      dup2\n      add\n      swap1\n      tag_22\n      swap2\n      swap1\n      tag_13\n      jump\t// in\n    tag_22:\n      tag_23\n      jump\t// in\n    tag_21:\n      stop\n        /* \"WorkStorage.sol\":431:515  function display() public view returns(uint256) {... */\n    tag_8:\n        /* \"WorkStorage.sol\":470:477  uint256 */\n      0x00\n        /* \"WorkStorage.sol\":497:507  coolNumber */\n      sload(0x00)\n        /* \"WorkStorage.sol\":490:507  return coolNumber */\n      swap1\n      pop\n        /* \"WorkStorage.sol\":431:515  function display() public view returns(uint256) {... */\n      swap1\n      jump\t// out\n        /* \"WorkStorage.sol\":272:301  Person[] public listOfPersons */\n    tag_14:\n      0x01\n      dup2\n      dup2\n      sload\n      dup2\n      lt\n      tag_25\n      jumpi\n      0x00\n      dup1\n      revert\n    tag_25:\n      swap1\n      0x00\n      mstore\n      keccak256(0x00, 0x20)\n      swap1\n      0x03\n      mul\n      add\n      0x00\n      swap2\n      pop\n      swap1\n      pop\n      dup1\n      0x00\n      add\n      sload\n      swap1\n      dup1\n      0x01\n      add\n      dup1\n      sload\n      tag_27\n      swap1\n      tag_28\n      jump\t// in\n    tag_27:\n      dup1\n      0x1f\n      add\n      0x20\n      dup1\n      swap2\n      div\n      mul\n      0x20\n      add\n      mload(0x40)\n      swap1\n      dup2\n      add\n      0x40\n      mstore\n      dup1\n      swap3\n      swap2\n      swap1\n      dup2\n      dup2\n      mstore\n      0x20\n      add\n      dup3\n      dup1\n      sload\n      tag_29\n      swap1\n      tag_28\n      jump\t// in\n    tag_29:\n      dup1\n      iszero\n      tag_30\n      jumpi\n      dup1\n      0x1f\n      lt\n      tag_31\n      jumpi\n      0x0100\n      dup1\n      dup4\n      sload\n      div\n      mul\n      dup4\n      mstore\n      swap2\n      0x20\n      add\n      swap2\n      jump(tag_30)\n    tag_31:\n      dup3\n      add\n      swap2\n      swap1\n      0x00\n      mstore\n      keccak256(0x00, 0x20)\n      swap1\n    tag_32:\n      dup2\n      sload\n      dup2\n      mstore\n      swap1\n      0x01\n      add\n      swap1\n      0x20\n      add\n      dup1\n      dup4\n      gt\n      tag_32\n      jumpi\n      dup3\n      swap1\n      sub\n      0x1f\n      and\n      dup3\n      add\n      swap2\n    tag_30:\n      pop\n      pop\n      pop\n      pop\n      pop\n      swap1\n      dup1\n      0x02\n      add\n      dup1\n      sload\n      tag_33\n      swap1\n      tag_28\n      jump\t// in\n    tag_33:\n      dup1\n      0x1f\n      add\n      0x20\n      dup1\n      swap2\n      div\n      mul\n      0x20\n      add\n      mload(0x40)\n      swap1\n      dup2\n      add\n      0x40\n      mstore\n      dup1\n      swap3\n      swap2\n      swap1\n      dup2\n      dup2\n      mstore\n      0x20\n      add\n      dup3\n      dup1\n      sload\n      tag_34\n      swap1\n      tag_28\n      jump\t// in\n    tag_34:\n      dup1\n      iszero\n      tag_35\n      jumpi\n      dup1\n      0x1f\n      lt\n      tag_36\n      jumpi\n      0x0100\n      dup1\n      dup4\n      sload\n      div\n      mul\n      dup4\n      mstore\n      swap2\n      0x20\n      add\n      swap2\n      jump(tag_35)\n    tag_36:\n      dup3\n      add\n      swap2\n      swap1\n      0x00\n      mstore\n      keccak256(0x00, 0x20)\n      swap1\n    tag_37:\n      dup2\n      sload\n      dup2\n      mstore\n      swap1\n      0x01\n      add\n      swap1\n      0x20\n      add\n      dup1\n      dup4\n      gt\n      tag_37\n      jumpi\n      dup3\n      swap1\n      sub\n      0x1f\n      and\n      dup3\n      add\n      swap2\n    tag_35:\n      pop\n      pop\n      pop\n      pop\n      pop\n      swap1\n      pop\n      dup4\n      jump\t// out\n        /* \"WorkStorage.sol\":523:706  function addMorePersons(uint256 _myFavoriteNumber, string memory _name, string memory _color ) public {... */\n    tag_20:\n        /* \"WorkStorage.sol\":636:649  listOfPersons */\n      0x01\n        /* \"WorkStorage.sol\":656:696  Person(_myFavoriteNumber, _name, _color) */\n      mload(0x40)\n      dup1\n      0x60\n      add\n      0x40\n      mstore\n      dup1\n        /* \"WorkStorage.sol\":663:680  _myFavoriteNumber */\n      dup6\n        /* \"WorkStorage.sol\":656:696  Person(_myFavoriteNumber, _name, _color) */\n      dup2\n      mstore\n      0x20\n      add\n        /* \"WorkStorage.sol\":682:687  _name */\n      dup5\n        /* \"WorkStorage.sol\":656:696  Person(_myFavoriteNumber, _name, _color) */\n      dup2\n      mstore\n      0x20\n      add\n        /* \"WorkStorage.sol\":689:695  _color */\n      dup4\n        /* \"WorkStorage.sol\":656:696  Person(_myFavoriteNumber, _name, _color) */\n      dup2\n      mstore\n      pop\n        /* \"WorkStorage.sol\":636:698  listOfPersons.push( Person(_myFavoriteNumber, _name, _color) ) */\n      swap1\n      dup1\n      0x01\n      dup2\n      sload\n      add\n      dup1\n      dup3\n      sstore\n      dup1\n      swap2\n      pop\n      pop\n      0x01\n      swap1\n      sub\n      swap1\n      0x00\n      mstore\n      keccak256(0x00, 0x20)\n      swap1\n      0x03\n      mul\n      add\n      0x00\n      swap1\n      swap2\n      swap1\n      swap2\n      swap1\n      swap2\n      pop\n      0x00\n      dup3\n      add\n      mload\n      dup2\n      0x00\n      add\n      sstore\n      0x20\n      dup3\n      add\n      mload\n      dup2\n      0x01\n      add\n      swap1\n      dup2\n      tag_40\n      swap2\n      swap1\n      tag_41\n      jump\t// in\n    tag_40:\n      pop\n      0x40\n      dup3\n      add\n      mload\n      dup2\n      0x02\n      add\n      swap1\n      dup2\n      tag_42\n      swap2\n      swap1\n      tag_41\n      jump\t// in\n    tag_42:\n      pop\n      pop\n      pop\n        /* \"WorkStorage.sol\":523:706  function addMorePersons(uint256 _myFavoriteNumber, string memory _name, string memory _color ) public {... */\n      pop\n      pop\n      pop\n      jump\t// out\n        /* \"WorkStorage.sol\":310:404  function changer(uint256 _newCoolNumber) public {... */\n    tag_23:\n        /* \"WorkStorage.sol\":382:396  _newCoolNumber */\n      dup1\n        /* \"WorkStorage.sol\":369:379  coolNumber */\n      0x00\n        /* \"WorkStorage.sol\":369:396  coolNumber = _newCoolNumber */\n      dup2\n      swap1\n      sstore\n      pop\n        /* \"WorkStorage.sol\":310:404  function changer(uint256 _newCoolNumber) public {... */\n      pop\n      jump\t// out\n        /* \"#utility.yul\":7:84   */\n    tag_44:\n        /* \"#utility.yul\":44:51   */\n      0x00\n        /* \"#utility.yul\":73:78   */\n      dup2\n        /* \"#utility.yul\":62:78   */\n      swap1\n      pop\n        /* \"#utility.yul\":7:84   */\n      swap2\n      swap1\n      pop\n      jump\t// out\n        /* \"#utility.yul\":90:208   */\n    tag_45:\n        /* \"#utility.yul\":177:201   */\n      tag_84\n        /* \"#utility.yul\":195:200   */\n      dup2\n        /* \"#utility.yul\":177:201   */\n      tag_44\n      jump\t// in\n    tag_84:\n        /* \"#utility.yul\":172:175   */\n      dup3\n        /* \"#utility.yul\":165:202   */\n      mstore\n        /* \"#utility.yul\":90:208   */\n      pop\n      pop\n      jump\t// out\n        /* \"#utility.yul\":214:436   */\n    tag_10:\n        /* \"#utility.yul\":307:311   */\n      0x00\n        /* \"#utility.yul\":345:347   */\n      0x20\n        /* \"#utility.yul\":334:343   */\n      dup3\n        /* \"#utility.yul\":330:348   */\n      add\n        /* \"#utility.yul\":322:348   */\n      swap1\n      pop\n        /* \"#utility.yul\":358:429   */\n      tag_86\n        /* \"#utility.yul\":426:427   */\n      0x00\n        /* \"#utility.yul\":415:424   */\n      dup4\n        /* \"#utility.yul\":411:428   */\n      add\n        /* \"#utility.yul\":402:408   */\n      dup5\n        /* \"#utility.yul\":358:429   */\n      tag_45\n      jump\t// in\n    tag_86:\n        /* \"#utility.yul\":214:436   */\n      swap3\n      swap2\n      pop\n      pop\n      jump\t// out\n        /* \"#utility.yul\":442:517   */\n    tag_46:\n        /* \"#utility.yul\":475:481   */\n      0x00\n        /* \"#utility.yul\":508:510   */\n      0x40\n        /* \"#utility.yul\":502:511   */\n      mload\n        /* \"#utility.yul\":492:511   */\n      swap1\n      pop\n        /* \"#utility.yul\":442:517   */\n      swap1\n      jump\t// out\n        /* \"#utility.yul\":523:640   */\n    tag_47:\n        /* \"#utility.yul\":632:633   */\n      0x00\n        /* \"#utility.yul\":629:630   */\n      0x00\n        /* \"#utility.yul\":622:634   */\n      revert\n        /* \"#utility.yul\":646:763   */\n    tag_48:\n        /* \"#utility.yul\":755:756   */\n      0x00\n        /* \"#utility.yul\":752:753   */\n      0x00\n        /* \"#utility.yul\":745:757   */\n      revert\n        /* \"#utility.yul\":769:891   */\n    tag_49:\n        /* \"#utility.yul\":842:866   */\n      tag_91\n        /* \"#utility.yul\":860:865   */\n      dup2\n        /* \"#utility.yul\":842:866   */\n      tag_44\n      jump\t// in\n    tag_91:\n        /* \"#utility.yul\":835:840   */\n      dup2\n        /* \"#utility.yul\":832:867   */\n      eq\n        /* \"#utility.yul\":822:885   */\n      tag_92\n      jumpi\n        /* \"#utility.yul\":881:882   */\n      0x00\n        /* \"#utility.yul\":878:879   */\n      0x00\n        /* \"#utility.yul\":871:883   */\n      revert\n        /* \"#utility.yul\":822:885   */\n    tag_92:\n        /* \"#utility.yul\":769:891   */\n      pop\n      jump\t// out\n        /* \"#utility.yul\":897:1036   */\n    tag_50:\n        /* \"#utility.yul\":943:948   */\n      0x00\n        /* \"#utility.yul\":981:987   */\n      dup2\n        /* \"#utility.yul\":968:988   */\n      calldataload\n        /* \"#utility.yul\":959:988   */\n      swap1\n      pop\n        /* \"#utility.yul\":997:1030   */\n      tag_94\n        /* \"#utility.yul\":1024:1029   */\n      dup2\n        /* \"#utility.yul\":997:1030   */\n      tag_49\n      jump\t// in\n    tag_94:\n        /* \"#utility.yul\":897:1036   */\n      swap3\n      swap2\n      pop\n      pop\n      jump\t// out\n        /* \"#utility.yul\":1042:1371   */\n    tag_13:\n        /* \"#utility.yul\":1101:1107   */\n      0x00\n        /* \"#utility.yul\":1150:1152   */\n      0x20\n        /* \"#utility.yul\":1138:1147   */\n      dup3\n        /* \"#utility.yul\":1129:1136   */\n      dup5\n        /* \"#utility.yul\":1125:1148   */\n      sub\n        /* \"#utility.yul\":1121:1153   */\n      slt\n        /* \"#utility.yul\":1118:1237   */\n      iszero\n      tag_96\n      jumpi\n        /* \"#utility.yul\":1156:1235   */\n      tag_97\n      tag_47\n      jump\t// in\n    tag_97:\n        /* \"#utility.yul\":1118:1237   */\n    tag_96:\n        /* \"#utility.yul\":1276:1277   */\n      0x00\n        /* \"#utility.yul\":1301:1354   */\n      tag_98\n        /* \"#utility.yul\":1346:1353   */\n      dup5\n        /* \"#utility.yul\":1337:1343   */\n      dup3\n        /* \"#utility.yul\":1326:1335   */\n      dup6\n        /* \"#utility.yul\":1322:1344   */\n      add\n        /* \"#utility.yul\":1301:1354   */\n      tag_50\n      jump\t// in\n    tag_98:\n        /* \"#utility.yul\":1291:1354   */\n      swap2\n      pop\n        /* \"#utility.yul\":1247:1364   */\n      pop\n        /* \"#utility.yul\":1042:1371   */\n      swap3\n      swap2\n      pop\n      pop\n      jump\t// out\n        /* \"#utility.yul\":1377:1476   */\n    tag_51:\n        /* \"#utility.yul\":1429:1435   */\n      0x00\n        /* \"#utility.yul\":1463:1468   */\n      dup2\n        /* \"#utility.yul\":1457:1469   */\n      mload\n        /* \"#utility.yul\":1447:1469   */\n      swap1\n      pop\n        /* \"#utility.yul\":1377:1476   */\n      swap2\n      swap1\n      pop\n      jump\t// out\n        /* \"#utility.yul\":1482:1651   */\n    tag_52:\n        /* \"#utility.yul\":1566:1577   */\n      0x00\n        /* \"#utility.yul\":1600:1606   */\n      dup3\n        /* \"#utility.yul\":1595:1598   */\n      dup3\n        /* \"#utility.yul\":1588:1607   */\n      mstore\n        /* \"#utility.yul\":1640:1644   */\n      0x20\n        /* \"#utility.yul\":1635:1638   */\n      dup3\n        /* \"#utility.yul\":1631:1645   */\n      add\n        /* \"#utility.yul\":1616:1645   */\n      swap1\n      pop\n        /* \"#utility.yul\":1482:1651   */\n      swap3\n      swap2\n      pop\n      pop\n      jump\t// out\n        /* \"#utility.yul\":1657:1796   */\n    tag_53:\n        /* \"#utility.yul\":1746:1752   */\n      dup3\n        /* \"#utility.yul\":1741:1744   */\n      dup2\n        /* \"#utility.yul\":1736:1739   */\n      dup4\n        /* \"#utility.yul\":1730:1753   */\n      mcopy\n        /* \"#utility.yul\":1787:1788   */\n      0x00\n        /* \"#utility.yul\":1778:1784   */\n      dup4\n        /* \"#utility.yul\":1773:1776   */\n      dup4\n        /* \"#utility.yul\":1769:1785   */\n      add\n        /* \"#utility.yul\":1762:1789   */\n      mstore\n        /* \"#utility.yul\":1657:1796   */\n      pop\n      pop\n      pop\n      jump\t// out\n        /* \"#utility.yul\":1802:1904   */\n    tag_54:\n        /* \"#utility.yul\":1843:1849   */\n      0x00\n        /* \"#utility.yul\":1894:1896   */\n      0x1f\n        /* \"#utility.yul\":1890:1897   */\n      not\n        /* \"#utility.yul\":1885:1887   */\n      0x1f\n        /* \"#utility.yul\":1878:1883   */\n      dup4\n        /* \"#utility.yul\":1874:1888   */\n      add\n        /* \"#utility.yul\":1870:1898   */\n      and\n        /* \"#utility.yul\":1860:1898   */\n      swap1\n      pop\n        /* \"#utility.yul\":1802:1904   */\n      swap2\n      swap1\n      pop\n      jump\t// out\n        /* \"#utility.yul\":1910:2287   */\n    tag_55:\n        /* \"#utility.yul\":1998:2001   */\n      0x00\n        /* \"#utility.yul\":2026:2065   */\n      tag_104\n        /* \"#utility.yul\":2059:2064   */\n      dup3\n        /* \"#utility.yul\":2026:2065   */\n      tag_51\n      jump\t// in\n    tag_104:\n        /* \"#utility.yul\":2081:2152   */\n      tag_105\n        /* \"#utility.yul\":2145:2151   */\n      dup2\n        /* \"#utility.yul\":2140:2143   */\n      dup6\n        /* \"#utility.yul\":2081:2152   */\n      tag_52\n      jump\t// in\n    tag_105:\n        /* \"#utility.yul\":2074:2152   */\n      swap4\n      pop\n        /* \"#utility.yul\":2161:2226   */\n      tag_106\n        /* \"#utility.yul\":2219:2225   */\n      dup2\n        /* \"#utility.yul\":2214:2217   */\n      dup6\n        /* \"#utility.yul\":2207:2211   */\n      0x20\n        /* \"#utility.yul\":2200:2205   */\n      dup7\n        /* \"#utility.yul\":2196:2212   */\n      add\n        /* \"#utility.yul\":2161:2226   */\n      tag_53\n      jump\t// in\n    tag_106:\n        /* \"#utility.yul\":2251:2280   */\n      tag_107\n        /* \"#utility.yul\":2273:2279   */\n      dup2\n        /* \"#utility.yul\":2251:2280   */\n      tag_54\n      jump\t// in\n    tag_107:\n        /* \"#utility.yul\":2246:2249   */\n      dup5\n        /* \"#utility.yul\":2242:2281   */\n      add\n        /* \"#utility.yul\":2235:2281   */\n      swap2\n      pop\n        /* \"#utility.yul\":2002:2287   */\n      pop\n        /* \"#utility.yul\":1910:2287   */\n      swap3\n      swap2\n      pop\n      pop\n      jump\t// out\n        /* \"#utility.yul\":2293:2917   */\n    tag_16:\n        /* \"#utility.yul\":2482:2486   */\n      0x00\n        /* \"#utility.yul\":2520:2522   */\n      0x60\n        /* \"#utility.yul\":2509:2518   */\n      dup3\n        /* \"#utility.yul\":2505:2523   */\n      add\n        /* \"#utility.yul\":2497:2523   */\n      swap1\n      pop\n        /* \"#utility.yul\":2533:2604   */\n      tag_109\n        /* \"#utility.yul\":2601:2602   */\n      0x00\n        /* \"#utility.yul\":2590:2599   */\n      dup4\n        /* \"#utility.yul\":2586:2603   */\n      add\n        /* \"#utility.yul\":2577:2583   */\n      dup7\n        /* \"#utility.yul\":2533:2604   */\n      tag_45\n      jump\t// in\n    tag_109:\n        /* \"#utility.yul\":2651:2660   */\n      dup2\n        /* \"#utility.yul\":2645:2649   */\n      dup2\n        /* \"#utility.yul\":2641:2661   */\n      sub\n        /* \"#utility.yul\":2636:2638   */\n      0x20\n        /* \"#utility.yul\":2625:2634   */\n      dup4\n        /* \"#utility.yul\":2621:2639   */\n      add\n        /* \"#utility.yul\":2614:2662   */\n      mstore\n        /* \"#utility.yul\":2679:2757   */\n      tag_110\n        /* \"#utility.yul\":2752:2756   */\n      dup2\n        /* \"#utility.yul\":2743:2749   */\n      dup6\n        /* \"#utility.yul\":2679:2757   */\n      tag_55\n      jump\t// in\n    tag_110:\n        /* \"#utility.yul\":2671:2757   */\n      swap1\n      pop\n        /* \"#utility.yul\":2804:2813   */\n      dup2\n        /* \"#utility.yul\":2798:2802   */\n      dup2\n        /* \"#utility.yul\":2794:2814   */\n      sub\n        /* \"#utility.yul\":2789:2791   */\n      0x40\n        /* \"#utility.yul\":2778:2787   */\n      dup4\n        /* \"#utility.yul\":2774:2792   */\n      add\n        /* \"#utility.yul\":2767:2815   */\n      mstore\n        /* \"#utility.yul\":2832:2910   */\n      tag_111\n        /* \"#utility.yul\":2905:2909   */\n      dup2\n        /* \"#utility.yul\":2896:2902   */\n      dup5\n        /* \"#utility.yul\":2832:2910   */\n      tag_55\n      jump\t// in\n    tag_111:\n        /* \"#utility.yul\":2824:2910   */\n      swap1\n      pop\n        /* \"#utility.yul\":2293:2917   */\n      swap5\n      swap4\n      pop\n      pop\n      pop\n      pop\n      jump\t// out\n        /* \"#utility.yul\":2923:3040   */\n    tag_56:\n        /* \"#utility.yul\":3032:3033   */\n      0x00\n        /* \"#utility.yul\":3029:3030   */\n      0x00\n        /* \"#utility.yul\":3022:3034   */\n      revert\n        /* \"#utility.yul\":3046:3163   */\n    tag_57:\n        /* \"#utility.yul\":3155:3156   */\n      0x00\n        /* \"#utility.yul\":3152:3153   */\n      0x00\n        /* \"#utility.yul\":3145:3157   */\n      revert\n        /* \"#utility.yul\":3169:3349   */\n    tag_58:\n        /* \"#utility.yul\":3217:3294   */\n      0x4e487b7100000000000000000000000000000000000000000000000000000000\n        /* \"#utility.yul\":3214:3215   */\n      0x00\n        /* \"#utility.yul\":3207:3295   */\n      mstore\n        /* \"#utility.yul\":3314:3318   */\n      0x41\n        /* \"#utility.yul\":3311:3312   */\n      0x04\n        /* \"#utility.yul\":3304:3319   */\n      mstore\n        /* \"#utility.yul\":3338:3342   */\n      0x24\n        /* \"#utility.yul\":3335:3336   */\n      0x00\n        /* \"#utility.yul\":3328:3343   */\n      revert\n        /* \"#utility.yul\":3355:3636   */\n    tag_59:\n        /* \"#utility.yul\":3438:3465   */\n      tag_116\n        /* \"#utility.yul\":3460:3464   */\n      dup3\n        /* \"#utility.yul\":3438:3465   */\n      tag_54\n      jump\t// in\n    tag_116:\n        /* \"#utility.yul\":3430:3436   */\n      dup2\n        /* \"#utility.yul\":3426:3466   */\n      add\n        /* \"#utility.yul\":3568:3574   */\n      dup2\n        /* \"#utility.yul\":3556:3566   */\n      dup2\n        /* \"#utility.yul\":3553:3575   */\n      lt\n        /* \"#utility.yul\":3532:3550   */\n      0xffffffffffffffff\n        /* \"#utility.yul\":3520:3530   */\n      dup3\n        /* \"#utility.yul\":3517:3551   */\n      gt\n        /* \"#utility.yul\":3514:3576   */\n      or\n        /* \"#utility.yul\":3511:3599   */\n      iszero\n      tag_117\n      jumpi\n        /* \"#utility.yul\":3579:3597   */\n      tag_118\n      tag_58\n      jump\t// in\n    tag_118:\n        /* \"#utility.yul\":3511:3599   */\n    tag_117:\n        /* \"#utility.yul\":3619:3629   */\n      dup1\n        /* \"#utility.yul\":3615:3617   */\n      0x40\n        /* \"#utility.yul\":3608:3630   */\n      mstore\n        /* \"#utility.yul\":3398:3636   */\n      pop\n        /* \"#utility.yul\":3355:3636   */\n      pop\n      pop\n      jump\t// out\n        /* \"#utility.yul\":3642:3771   */\n    tag_60:\n        /* \"#utility.yul\":3676:3682   */\n      0x00\n        /* \"#utility.yul\":3703:3723   */\n      tag_120\n      tag_46\n      jump\t// in\n    tag_120:\n        /* \"#utility.yul\":3693:3723   */\n      swap1\n      pop\n        /* \"#utility.yul\":3732:3765   */\n      tag_121\n        /* \"#utility.yul\":3760:3764   */\n      dup3\n        /* \"#utility.yul\":3752:3758   */\n      dup3\n        /* \"#utility.yul\":3732:3765   */\n      tag_59\n      jump\t// in\n    tag_121:\n        /* \"#utility.yul\":3642:3771   */\n      swap2\n      swap1\n      pop\n      jump\t// out\n        /* \"#utility.yul\":3777:4085   */\n    tag_61:\n        /* \"#utility.yul\":3839:3843   */\n      0x00\n        /* \"#utility.yul\":3929:3947   */\n      0xffffffffffffffff\n        /* \"#utility.yul\":3921:3927   */\n      dup3\n        /* \"#utility.yul\":3918:3948   */\n      gt\n        /* \"#utility.yul\":3915:3971   */\n      iszero\n      tag_123\n      jumpi\n        /* \"#utility.yul\":3951:3969   */\n      tag_124\n      tag_58\n      jump\t// in\n    tag_124:\n        /* \"#utility.yul\":3915:3971   */\n    tag_123:\n        /* \"#utility.yul\":3989:4018   */\n      tag_125\n        /* \"#utility.yul\":4011:4017   */\n      dup3\n        /* \"#utility.yul\":3989:4018   */\n      tag_54\n      jump\t// in\n    tag_125:\n        /* \"#utility.yul\":3981:4018   */\n      swap1\n      pop\n        /* \"#utility.yul\":4073:4077   */\n      0x20\n        /* \"#utility.yul\":4067:4071   */\n      dup2\n        /* \"#utility.yul\":4063:4078   */\n      add\n        /* \"#utility.yul\":4055:4078   */\n      swap1\n      pop\n        /* \"#utility.yul\":3777:4085   */\n      swap2\n      swap1\n      pop\n      jump\t// out\n        /* \"#utility.yul\":4091:4239   */\n    tag_62:\n        /* \"#utility.yul\":4189:4195   */\n      dup3\n        /* \"#utility.yul\":4184:4187   */\n      dup2\n        /* \"#utility.yul\":4179:4182   */\n      dup4\n        /* \"#utility.yul\":4166:4196   */\n      calldatacopy\n        /* \"#utility.yul\":4230:4231   */\n      0x00\n        /* \"#utility.yul\":4221:4227   */\n      dup4\n        /* \"#utility.yul\":4216:4219   */\n      dup4\n        /* \"#utility.yul\":4212:4228   */\n      add\n        /* \"#utility.yul\":4205:4232   */\n      mstore\n        /* \"#utility.yul\":4091:4239   */\n      pop\n      pop\n      pop\n      jump\t// out\n        /* \"#utility.yul\":4245:4670   */\n    tag_63:\n        /* \"#utility.yul\":4323:4328   */\n      0x00\n        /* \"#utility.yul\":4348:4414   */\n      tag_128\n        /* \"#utility.yul\":4364:4413   */\n      tag_129\n        /* \"#utility.yul\":4406:4412   */\n      dup5\n        /* \"#utility.yul\":4364:4413   */\n      tag_61\n      jump\t// in\n    tag_129:\n        /* \"#utility.yul\":4348:4414   */\n      tag_60\n      jump\t// in\n    tag_128:\n        /* \"#utility.yul\":4339:4414   */\n      swap1\n      pop\n        /* \"#utility.yul\":4437:4443   */\n      dup3\n        /* \"#utility.yul\":4430:4435   */\n      dup2\n        /* \"#utility.yul\":4423:4444   */\n      mstore\n        /* \"#utility.yul\":4475:4479   */\n      0x20\n        /* \"#utility.yul\":4468:4473   */\n      dup2\n        /* \"#utility.yul\":4464:4480   */\n      add\n        /* \"#utility.yul\":4513:4516   */\n      dup5\n        /* \"#utility.yul\":4504:4510   */\n      dup5\n        /* \"#utility.yul\":4499:4502   */\n      dup5\n        /* \"#utility.yul\":4495:4511   */\n      add\n        /* \"#utility.yul\":4492:4517   */\n      gt\n        /* \"#utility.yul\":4489:4601   */\n      iszero\n      tag_130\n      jumpi\n        /* \"#utility.yul\":4520:4599   */\n      tag_131\n      tag_57\n      jump\t// in\n    tag_131:\n        /* \"#utility.yul\":4489:4601   */\n    tag_130:\n        /* \"#utility.yul\":4610:4664   */\n      tag_132\n        /* \"#utility.yul\":4657:4663   */\n      dup5\n        /* \"#utility.yul\":4652:4655   */\n      dup3\n        /* \"#utility.yul\":4647:4650   */\n      dup6\n        /* \"#utility.yul\":4610:4664   */\n      tag_62\n      jump\t// in\n    tag_132:\n        /* \"#utility.yul\":4329:4670   */\n      pop\n        /* \"#utility.yul\":4245:4670   */\n      swap4\n      swap3\n      pop\n      pop\n      pop\n      jump\t// out\n        /* \"#utility.yul\":4690:5030   */\n    tag_64:\n        /* \"#utility.yul\":4746:4751   */\n      0x00\n        /* \"#utility.yul\":4795:4798   */\n      dup3\n        /* \"#utility.yul\":4788:4792   */\n      0x1f\n        /* \"#utility.yul\":4780:4786   */\n      dup4\n        /* \"#utility.yul\":4776:4793   */\n      add\n        /* \"#utility.yul\":4772:4799   */\n      slt\n        /* \"#utility.yul\":4762:4884   */\n      tag_134\n      jumpi\n        /* \"#utility.yul\":4803:4882   */\n      tag_135\n      tag_56\n      jump\t// in\n    tag_135:\n        /* \"#utility.yul\":4762:4884   */\n    tag_134:\n        /* \"#utility.yul\":4920:4926   */\n      dup2\n        /* \"#utility.yul\":4907:4927   */\n      calldataload\n        /* \"#utility.yul\":4945:5024   */\n      tag_136\n        /* \"#utility.yul\":5020:5023   */\n      dup5\n        /* \"#utility.yul\":5012:5018   */\n      dup3\n        /* \"#utility.yul\":5005:5009   */\n      0x20\n        /* \"#utility.yul\":4997:5003   */\n      dup7\n        /* \"#utility.yul\":4993:5010   */\n      add\n        /* \"#utility.yul\":4945:5024   */\n      tag_63\n      jump\t// in\n    tag_136:\n        /* \"#utility.yul\":4936:5024   */\n      swap2\n      pop\n        /* \"#utility.yul\":4752:5030   */\n      pop\n        /* \"#utility.yul\":4690:5030   */\n      swap3\n      swap2\n      pop\n      pop\n      jump\t// out\n        /* \"#utility.yul\":5036:6015   */\n    tag_19:\n        /* \"#utility.yul\":5133:5139   */\n      0x00\n        /* \"#utility.yul\":5141:5147   */\n      0x00\n        /* \"#utility.yul\":5149:5155   */\n      0x00\n        /* \"#utility.yul\":5198:5200   */\n      0x60\n        /* \"#utility.yul\":5186:5195   */\n      dup5\n        /* \"#utility.yul\":5177:5184   */\n      dup7\n        /* \"#utility.yul\":5173:5196   */\n      sub\n        /* \"#utility.yul\":5169:5201   */\n      slt\n        /* \"#utility.yul\":5166:5285   */\n      iszero\n      tag_138\n      jumpi\n        /* \"#utility.yul\":5204:5283   */\n      tag_139\n      tag_47\n      jump\t// in\n    tag_139:\n        /* \"#utility.yul\":5166:5285   */\n    tag_138:\n        /* \"#utility.yul\":5324:5325   */\n      0x00\n        /* \"#utility.yul\":5349:5402   */\n      tag_140\n        /* \"#utility.yul\":5394:5401   */\n      dup7\n        /* \"#utility.yul\":5385:5391   */\n      dup3\n        /* \"#utility.yul\":5374:5383   */\n      dup8\n        /* \"#utility.yul\":5370:5392   */\n      add\n        /* \"#utility.yul\":5349:5402   */\n      tag_50\n      jump\t// in\n    tag_140:\n        /* \"#utility.yul\":5339:5402   */\n      swap4\n      pop\n        /* \"#utility.yul\":5295:5412   */\n      pop\n        /* \"#utility.yul\":5479:5481   */\n      0x20\n        /* \"#utility.yul\":5468:5477   */\n      dup5\n        /* \"#utility.yul\":5464:5482   */\n      add\n        /* \"#utility.yul\":5451:5483   */\n      calldataload\n        /* \"#utility.yul\":5510:5528   */\n      0xffffffffffffffff\n        /* \"#utility.yul\":5502:5508   */\n      dup2\n        /* \"#utility.yul\":5499:5529   */\n      gt\n        /* \"#utility.yul\":5496:5613   */\n      iszero\n      tag_141\n      jumpi\n        /* \"#utility.yul\":5532:5611   */\n      tag_142\n      tag_48\n      jump\t// in\n    tag_142:\n        /* \"#utility.yul\":5496:5613   */\n    tag_141:\n        /* \"#utility.yul\":5637:5700   */\n      tag_143\n        /* \"#utility.yul\":5692:5699   */\n      dup7\n        /* \"#utility.yul\":5683:5689   */\n      dup3\n        /* \"#utility.yul\":5672:5681   */\n      dup8\n        /* \"#utility.yul\":5668:5690   */\n      add\n        /* \"#utility.yul\":5637:5700   */\n      tag_64\n      jump\t// in\n    tag_143:\n        /* \"#utility.yul\":5627:5700   */\n      swap3\n      pop\n        /* \"#utility.yul\":5422:5710   */\n      pop\n        /* \"#utility.yul\":5777:5779   */\n      0x40\n        /* \"#utility.yul\":5766:5775   */\n      dup5\n        /* \"#utility.yul\":5762:5780   */\n      add\n        /* \"#utility.yul\":5749:5781   */\n      calldataload\n        /* \"#utility.yul\":5808:5826   */\n      0xffffffffffffffff\n        /* \"#utility.yul\":5800:5806   */\n      dup2\n        /* \"#utility.yul\":5797:5827   */\n      gt\n        /* \"#utility.yul\":5794:5911   */\n      iszero\n      tag_144\n      jumpi\n        /* \"#utility.yul\":5830:5909   */\n      tag_145\n      tag_48\n      jump\t// in\n    tag_145:\n        /* \"#utility.yul\":5794:5911   */\n    tag_144:\n        /* \"#utility.yul\":5935:5998   */\n      tag_146\n        /* \"#utility.yul\":5990:5997   */\n      dup7\n        /* \"#utility.yul\":5981:5987   */\n      dup3\n        /* \"#utility.yul\":5970:5979   */\n      dup8\n        /* \"#utility.yul\":5966:5988   */\n      add\n        /* \"#utility.yul\":5935:5998   */\n      tag_64\n      jump\t// in\n    tag_146:\n        /* \"#utility.yul\":5925:5998   */\n      swap2\n      pop\n        /* \"#utility.yul\":5720:6008   */\n      pop\n        /* \"#utility.yul\":5036:6015   */\n      swap3\n      pop\n      swap3\n      pop\n      swap3\n      jump\t// out\n        /* \"#utility.yul\":6021:6201   */\n    tag_65:\n        /* \"#utility.yul\":6069:6146   */\n      0x4e487b7100000000000000000000000000000000000000000000000000000000\n        /* \"#utility.yul\":6066:6067   */\n      0x00\n        /* \"#utility.yul\":6059:6147   */\n      mstore\n        /* \"#utility.yul\":6166:6170   */\n      0x22\n        /* \"#utility.yul\":6163:6164   */\n      0x04\n        /* \"#utility.yul\":6156:6171   */\n      mstore\n        /* \"#utility.yul\":6190:6194   */\n      0x24\n        /* \"#utility.yul\":6187:6188   */\n      0x00\n        /* \"#utility.yul\":6180:6195   */\n      revert\n        /* \"#utility.yul\":6207:6527   */\n    tag_28:\n        /* \"#utility.yul\":6251:6257   */\n      0x00\n        /* \"#utility.yul\":6288:6289   */\n      0x02\n        /* \"#utility.yul\":6282:6286   */\n      dup3\n        /* \"#utility.yul\":6278:6290   */\n      div\n        /* \"#utility.yul\":6268:6290   */\n      swap1\n      pop\n        /* \"#utility.yul\":6335:6336   */\n      0x01\n        /* \"#utility.yul\":6329:6333   */\n      dup3\n        /* \"#utility.yul\":6325:6337   */\n      and\n        /* \"#utility.yul\":6356:6374   */\n      dup1\n        /* \"#utility.yul\":6346:6427   */\n      tag_149\n      jumpi\n        /* \"#utility.yul\":6412:6416   */\n      0x7f\n        /* \"#utility.yul\":6404:6410   */\n      dup3\n        /* \"#utility.yul\":6400:6417   */\n      and\n        /* \"#utility.yul\":6390:6417   */\n      swap2\n      pop\n        /* \"#utility.yul\":6346:6427   */\n    tag_149:\n        /* \"#utility.yul\":6474:6476   */\n      0x20\n        /* \"#utility.yul\":6466:6472   */\n      dup3\n        /* \"#utility.yul\":6463:6477   */\n      lt\n        /* \"#utility.yul\":6443:6461   */\n      dup2\n        /* \"#utility.yul\":6440:6478   */\n      sub\n        /* \"#utility.yul\":6437:6521   */\n      tag_150\n      jumpi\n        /* \"#utility.yul\":6493:6511   */\n      tag_151\n      tag_65\n      jump\t// in\n    tag_151:\n        /* \"#utility.yul\":6437:6521   */\n    tag_150:\n        /* \"#utility.yul\":6258:6527   */\n      pop\n        /* \"#utility.yul\":6207:6527   */\n      swap2\n      swap1\n      pop\n      jump\t// out\n        /* \"#utility.yul\":6533:6674   */\n    tag_66:\n        /* \"#utility.yul\":6582:6586   */\n      0x00\n        /* \"#utility.yul\":6605:6608   */\n      dup2\n        /* \"#utility.yul\":6597:6608   */\n      swap1\n      pop\n        /* \"#utility.yul\":6628:6631   */\n      dup2\n        /* \"#utility.yul\":6625:6626   */\n      0x00\n        /* \"#utility.yul\":6618:6632   */\n      mstore\n        /* \"#utility.yul\":6662:6666   */\n      0x20\n        /* \"#utility.yul\":6659:6660   */\n      0x00\n        /* \"#utility.yul\":6649:6667   */\n      keccak256\n        /* \"#utility.yul\":6641:6667   */\n      swap1\n      pop\n        /* \"#utility.yul\":6533:6674   */\n      swap2\n      swap1\n      pop\n      jump\t// out\n        /* \"#utility.yul\":6680:6773   */\n    tag_67:\n        /* \"#utility.yul\":6717:6723   */\n      0x00\n        /* \"#utility.yul\":6764:6766   */\n      0x20\n        /* \"#utility.yul\":6759:6761   */\n      0x1f\n        /* \"#utility.yul\":6752:6757   */\n      dup4\n        /* \"#utility.yul\":6748:6762   */\n      add\n        /* \"#utility.yul\":6744:6767   */\n      div\n        /* \"#utility.yul\":6734:6767   */\n      swap1\n      pop\n        /* \"#utility.yul\":6680:6773   */\n      swap2\n      swap1\n      pop\n      jump\t// out\n        /* \"#utility.yul\":6779:6886   */\n    tag_68:\n        /* \"#utility.yul\":6823:6831   */\n      0x00\n        /* \"#utility.yul\":6873:6878   */\n      dup3\n        /* \"#utility.yul\":6867:6871   */\n      dup3\n        /* \"#utility.yul\":6863:6879   */\n      shl\n        /* \"#utility.yul\":6842:6879   */\n      swap1\n      pop\n        /* \"#utility.yul\":6779:6886   */\n      swap3\n      swap2\n      pop\n      pop\n      jump\t// out\n        /* \"#utility.yul\":6892:7285   */\n    tag_69:\n        /* \"#utility.yul\":6961:6967   */\n      0x00\n        /* \"#utility.yul\":7011:7012   */\n      0x08\n        /* \"#utility.yul\":6999:7009   */\n      dup4\n        /* \"#utility.yul\":6995:7013   */\n      mul\n        /* \"#utility.yul\":7034:7131   */\n      tag_156\n        /* \"#utility.yul\":7064:7130   */\n      0xffffffffffffffffffffffffffffffffffffffffffffffffffffffffffffffff\n        /* \"#utility.yul\":7053:7062   */\n      dup3\n        /* \"#utility.yul\":7034:7131   */\n      tag_68\n      jump\t// in\n    tag_156:\n        /* \"#utility.yul\":7152:7191   */\n      tag_157\n        /* \"#utility.yul\":7182:7190   */\n      dup7\n        /* \"#utility.yul\":7171:7180   */\n      dup4\n        /* \"#utility.yul\":7152:7191   */\n      tag_68\n      jump\t// in\n    tag_157:\n        /* \"#utility.yul\":7140:7191   */\n      swap6\n      pop\n        /* \"#utility.yul\":7224:7228   */\n      dup1\n        /* \"#utility.yul\":7220:7229   */\n      not\n        /* \"#utility.yul\":7213:7218   */\n      dup5\n        /* \"#utility.yul\":7209:7230   */\n      and\n        /* \"#utility.yul\":7200:7230   */\n      swap4\n      pop\n        /* \"#utility.yul\":7273:7277   */\n      dup1\n        /* \"#utility.yul\":7263:7271   */\n      dup7\n        /* \"#utility.yul\":7259:7278   */\n      and\n        /* \"#utility.yul\":7252:7257   */\n      dup5\n        /* \"#utility.yul\":7249:7279   */\n      or\n        /* \"#utility.yul\":7239:7279   */\n      swap3\n      pop\n        /* \"#utility.yul\":6968:7285   */\n      pop\n      pop\n        /* \"#utility.yul\":6892:7285   */\n      swap4\n      swap3\n      pop\n      pop\n      pop\n      jump\t// out\n        /* \"#utility.yul\":7291:7351   */\n    tag_70:\n        /* \"#utility.yul\":7319:7322   */\n      0x00\n        /* \"#utility.yul\":7340:7345   */\n      dup2\n        /* \"#utility.yul\":7333:7345   */\n      swap1\n      pop\n        /* \"#utility.yul\":7291:7351   */\n      swap2\n      swap1\n      pop\n      jump\t// out\n        /* \"#utility.yul\":7357:7499   */\n    tag_71:\n        /* \"#utility.yul\":7407:7416   */\n      0x00\n        /* \"#utility.yul\":7440:7493   */\n      tag_160\n        /* \"#utility.yul\":7458:7492   */\n      tag_161\n        /* \"#utility.yul\":7467:7491   */\n      tag_162\n        /* \"#utility.yul\":7485:7490   */\n      dup5\n        /* \"#utility.yul\":7467:7491   */\n      tag_44\n      jump\t// in\n    tag_162:\n        /* \"#utility.yul\":7458:7492   */\n      tag_70\n      jump\t// in\n    tag_161:\n        /* \"#utility.yul\":7440:7493   */\n      tag_44\n      jump\t// in\n    tag_160:\n        /* \"#utility.yul\":7427:7493   */\n      swap1\n      pop\n        /* \"#utility.yul\":7357:7499   */\n      swap2\n      swap1\n      pop\n      jump\t// out\n        /* \"#utility.yul\":7505:7580   */\n    tag_72:\n        /* \"#utility.yul\":7548:7551   */\n      0x00\n        /* \"#utility.yul\":7569:7574   */\n      dup2\n        /* \"#utility.yul\":7562:7574   */\n      swap1\n      pop\n        /* \"#utility.yul\":7505:7580   */\n      swap2\n      swap1\n      pop\n      jump\t// out\n        /* \"#utility.yul\":7586:7855   */\n    tag_73:\n        /* \"#utility.yul\":7696:7735   */\n      tag_165\n        /* \"#utility.yul\":7727:7734   */\n      dup4\n        /* \"#utility.yul\":7696:7735   */\n      tag_71\n      jump\t// in\n    tag_165:\n        /* \"#utility.yul\":7757:7848   */\n      tag_166\n        /* \"#utility.yul\":7806:7847   */\n      tag_167\n        /* \"#utility.yul\":7830:7846   */\n      dup3\n        /* \"#utility.yul\":7806:7847   */\n      tag_72\n      jump\t// in\n    tag_167:\n        /* \"#utility.yul\":7798:7804   */\n      dup5\n        /* \"#utility.yul\":7791:7795   */\n      dup5\n        /* \"#utility.yul\":7785:7796   */\n      sload\n        /* \"#utility.yul\":7757:7848   */\n      tag_69\n      jump\t// in\n    tag_166:\n        /* \"#utility.yul\":7751:7755   */\n      dup3\n        /* \"#utility.yul\":7744:7849   */\n      sstore\n        /* \"#utility.yul\":7662:7855   */\n      pop\n        /* \"#utility.yul\":7586:7855   */\n      pop\n      pop\n      pop\n      jump\t// out\n        /* \"#utility.yul\":7861:7934   */\n    tag_74:\n        /* \"#utility.yul\":7906:7909   */\n      0x00\n        /* \"#utility.yul\":7927:7928   */\n      0x00\n        /* \"#utility.yul\":7920:7928   */\n      swap1\n      pop\n        /* \"#utility.yul\":7861:7934   */\n      swap1\n      jump\t// out\n        /* \"#utility.yul\":7940:8129   */\n    tag_75:\n        /* \"#utility.yul\":8017:8049   */\n      tag_170\n      tag_74\n      jump\t// in\n    tag_170:\n        /* \"#utility.yul\":8058:8123   */\n      tag_171\n        /* \"#utility.yul\":8116:8122   */\n      dup2\n        /* \"#utility.yul\":8108:8114   */\n      dup5\n        /* \"#utility.yul\":8102:8106   */\n      dup5\n        /* \"#utility.yul\":8058:8123   */\n      tag_73\n      jump\t// in\n    tag_171:\n        /* \"#utility.yul\":7993:8129   */\n      pop\n        /* \"#utility.yul\":7940:8129   */\n      pop\n      pop\n      jump\t// out\n        /* \"#utility.yul\":8135:8321   */\n    tag_76:\n        /* \"#utility.yul\":8195:8315   */\n    tag_173:\n        /* \"#utility.yul\":8212:8215   */\n      dup2\n        /* \"#utility.yul\":8205:8210   */\n      dup2\n        /* \"#utility.yul\":8202:8216   */\n      lt\n        /* \"#utility.yul\":8195:8315   */\n      iszero\n      tag_175\n      jumpi\n        /* \"#utility.yul\":8266:8305   */\n      tag_176\n        /* \"#utility.yul\":8303:8304   */\n      0x00\n        /* \"#utility.yul\":8296:8301   */\n      dup3\n        /* \"#utility.yul\":8266:8305   */\n      tag_75\n      jump\t// in\n    tag_176:\n        /* \"#utility.yul\":8239:8240   */\n      0x01\n        /* \"#utility.yul\":8232:8237   */\n      dup2\n        /* \"#utility.yul\":8228:8241   */\n      add\n        /* \"#utility.yul\":8219:8241   */\n      swap1\n      pop\n        /* \"#utility.yul\":8195:8315   */\n      jump(tag_173)\n    tag_175:\n        /* \"#utility.yul\":8135:8321   */\n      pop\n      pop\n      jump\t// out\n        /* \"#utility.yul\":8327:8870   */\n    tag_77:\n        /* \"#utility.yul\":8428:8430   */\n      0x1f\n        /* \"#utility.yul\":8423:8426   */\n      dup3\n        /* \"#utility.yul\":8420:8431   */\n      gt\n        /* \"#utility.yul\":8417:8863   */\n      iszero\n      tag_178\n      jumpi\n        /* \"#utility.yul\":8462:8500   */\n      tag_179\n        /* \"#utility.yul\":8494:8499   */\n      dup2\n        /* \"#utility.yul\":8462:8500   */\n      tag_66\n      jump\t// in\n    tag_179:\n        /* \"#utility.yul\":8546:8575   */\n      tag_180\n        /* \"#utility.yul\":8564:8574   */\n      dup5\n        /* \"#utility.yul\":8546:8575   */\n      tag_67\n      jump\t// in\n    tag_180:\n        /* \"#utility.yul\":8536:8544   */\n      dup2\n        /* \"#utility.yul\":8532:8576   */\n      add\n        /* \"#utility.yul\":8729:8731   */\n      0x20\n        /* \"#utility.yul\":8717:8727   */\n      dup6\n        /* \"#utility.yul\":8714:8732   */\n      lt\n        /* \"#utility.yul\":8711:8760   */\n      iszero\n      tag_181\n      jumpi\n        /* \"#utility.yul\":8750:8758   */\n      dup2\n        /* \"#utility.yul\":8735:8758   */\n      swap1\n      pop\n        /* \"#utility.yul\":8711:8760   */\n    tag_181:\n        /* \"#utility.yul\":8773:8853   */\n      tag_182\n        /* \"#utility.yul\":8829:8851   */\n      tag_183\n        /* \"#utility.yul\":8847:8850   */\n      dup6\n        /* \"#utility.yul\":8829:8851   */\n      tag_67\n      jump\t// in\n    tag_183:\n        /* \"#utility.yul\":8819:8827   */\n      dup4\n        /* \"#utility.yul\":8815:8852   */\n      add\n        /* \"#utility.yul\":8802:8813   */\n      dup3\n        /* \"#utility.yul\":8773:8853   */\n      tag_76\n      jump\t// in\n    tag_182:\n        /* \"#utility.yul\":8432:8863   */\n      pop\n      pop\n        /* \"#utility.yul\":8417:8863   */\n    tag_178:\n        /* \"#utility.yul\":8327:8870   */\n      pop\n      pop\n      pop\n      jump\t// out\n        /* \"#utility.yul\":8876:8993   */\n    tag_78:\n        /* \"#utility.yul\":8930:8938   */\n      0x00\n        /* \"#utility.yul\":8980:8985   */\n      dup3\n        /* \"#utility.yul\":8974:8978   */\n      dup3\n        /* \"#utility.yul\":8970:8986   */\n      shr\n        /* \"#utility.yul\":8949:8986   */\n      swap1\n      pop\n        /* \"#utility.yul\":8876:8993   */\n      swap3\n      swap2\n      pop\n      pop\n      jump\t// out\n        /* \"#utility.yul\":8999:9168   */\n    tag_79:\n        /* \"#utility.yul\":9043:9049   */\n      0x00\n        /* \"#utility.yul\":9076:9127   */\n      tag_186\n        /* \"#utility.yul\":9124:9125   */\n      0x00\n        /* \"#utility.yul\":9120:9126   */\n      not\n        /* \"#utility.yul\":9112:9117   */\n      dup5\n        /* \"#utility.yul\":9109:9110   */\n      0x08\n        /* \"#utility.yul\":9105:9118   */\n      mul\n        /* \"#utility.yul\":9076:9127   */\n      tag_78\n      jump\t// in\n    tag_186:\n        /* \"#utility.yul\":9072:9128   */\n      not\n        /* \"#utility.yul\":9157:9161   */\n      dup1\n        /* \"#utility.yul\":9151:9155   */\n      dup4\n        /* \"#utility.yul\":9147:9162   */\n      and\n        /* \"#utility.yul\":9137:9162   */\n      swap2\n      pop\n        /* \"#utility.yul\":9050:9168   */\n      pop\n        /* \"#utility.yul\":8999:9168   */\n      swap3\n      swap2\n      pop\n      pop\n      jump\t// out\n        /* \"#utility.yul\":9173:9468   */\n    tag_80:\n        /* \"#utility.yul\":9249:9253   */\n      0x00\n        /* \"#utility.yul\":9395:9424   */\n      tag_188\n        /* \"#utility.yul\":9420:9423   */\n      dup4\n        /* \"#utility.yul\":9414:9418   */\n      dup4\n        /* \"#utility.yul\":9395:9424   */\n      tag_79\n      jump\t// in\n    tag_188:\n        /* \"#utility.yul\":9387:9424   */\n      swap2\n      pop\n        /* \"#utility.yul\":9457:9460   */\n      dup3\n        /* \"#utility.yul\":9454:9455   */\n      0x02\n        /* \"#utility.yul\":9450:9461   */\n      mul\n        /* \"#utility.yul\":9444:9448   */\n      dup3\n        /* \"#utility.yul\":9441:9462   */\n      or\n        /* \"#utility.yul\":9433:9462   */\n      swap1\n      pop\n        /* \"#utility.yul\":9173:9468   */\n      swap3\n      swap2\n      pop\n      pop\n      jump\t// out\n        /* \"#utility.yul\":9473:10868   */\n    tag_41:\n        /* \"#utility.yul\":9590:9627   */\n      tag_190\n        /* \"#utility.yul\":9623:9626   */\n      dup3\n        /* \"#utility.yul\":9590:9627   */\n      tag_51\n      jump\t// in\n    tag_190:\n        /* \"#utility.yul\":9692:9710   */\n      0xffffffffffffffff\n        /* \"#utility.yul\":9684:9690   */\n      dup2\n        /* \"#utility.yul\":9681:9711   */\n      gt\n        /* \"#utility.yul\":9678:9734   */\n      iszero\n      tag_191\n      jumpi\n        /* \"#utility.yul\":9714:9732   */\n      tag_192\n      tag_58\n      jump\t// in\n    tag_192:\n        /* \"#utility.yul\":9678:9734   */\n    tag_191:\n        /* \"#utility.yul\":9758:9796   */\n      tag_193\n        /* \"#utility.yul\":9790:9794   */\n      dup3\n        /* \"#utility.yul\":9784:9795   */\n      sload\n        /* \"#utility.yul\":9758:9796   */\n      tag_28\n      jump\t// in\n    tag_193:\n        /* \"#utility.yul\":9843:9910   */\n      tag_194\n        /* \"#utility.yul\":9903:9909   */\n      dup3\n        /* \"#utility.yul\":9895:9901   */\n      dup3\n        /* \"#utility.yul\":9889:9893   */\n      dup6\n        /* \"#utility.yul\":9843:9910   */\n      tag_77\n      jump\t// in\n    tag_194:\n        /* \"#utility.yul\":9937:9938   */\n      0x00\n        /* \"#utility.yul\":9961:9965   */\n      0x20\n        /* \"#utility.yul\":9948:9965   */\n      swap1\n      pop\n        /* \"#utility.yul\":9993:9995   */\n      0x1f\n        /* \"#utility.yul\":9985:9991   */\n      dup4\n        /* \"#utility.yul\":9982:9996   */\n      gt\n        /* \"#utility.yul\":10010:10011   */\n      0x01\n        /* \"#utility.yul\":10005:10623   */\n      dup2\n      eq\n      tag_196\n      jumpi\n        /* \"#utility.yul\":10667:10668   */\n      0x00\n        /* \"#utility.yul\":10684:10690   */\n      dup5\n        /* \"#utility.yul\":10681:10758   */\n      iszero\n      tag_197\n      jumpi\n        /* \"#utility.yul\":10733:10742   */\n      dup3\n        /* \"#utility.yul\":10728:10731   */\n      dup8\n        /* \"#utility.yul\":10724:10743   */\n      add\n        /* \"#utility.yul\":10718:10744   */\n      mload\n        /* \"#utility.yul\":10709:10744   */\n      swap1\n      pop\n        /* \"#utility.yul\":10681:10758   */\n    tag_197:\n        /* \"#utility.yul\":10784:10851   */\n      tag_198\n        /* \"#utility.yul\":10844:10850   */\n      dup6\n        /* \"#utility.yul\":10837:10842   */\n      dup3\n        /* \"#utility.yul\":10784:10851   */\n      tag_80\n      jump\t// in\n    tag_198:\n        /* \"#utility.yul\":10778:10782   */\n      dup7\n        /* \"#utility.yul\":10771:10852   */\n      sstore\n        /* \"#utility.yul\":10640:10862   */\n      pop\n        /* \"#utility.yul\":9975:10862   */\n      jump(tag_195)\n        /* \"#utility.yul\":10005:10623   */\n    tag_196:\n        /* \"#utility.yul\":10057:10061   */\n      0x1f\n        /* \"#utility.yul\":10053:10062   */\n      not\n        /* \"#utility.yul\":10045:10051   */\n      dup5\n        /* \"#utility.yul\":10041:10063   */\n      and\n        /* \"#utility.yul\":10091:10128   */\n      tag_199\n        /* \"#utility.yul\":10123:10127   */\n      dup7\n        /* \"#utility.yul\":10091:10128   */\n      tag_66\n      jump\t// in\n    tag_199:\n        /* \"#utility.yul\":10150:10151   */\n      0x00\n        /* \"#utility.yul\":10164:10372   */\n    tag_200:\n        /* \"#utility.yul\":10178:10185   */\n      dup3\n        /* \"#utility.yul\":10175:10176   */\n      dup2\n        /* \"#utility.yul\":10172:10186   */\n      lt\n        /* \"#utility.yul\":10164:10372   */\n      iszero\n      tag_202\n      jumpi\n        /* \"#utility.yul\":10257:10266   */\n      dup5\n        /* \"#utility.yul\":10252:10255   */\n      dup10\n        /* \"#utility.yul\":10248:10267   */\n      add\n        /* \"#utility.yul\":10242:10268   */\n      mload\n        /* \"#utility.yul\":10234:10240   */\n      dup3\n        /* \"#utility.yul\":10227:10269   */\n      sstore\n        /* \"#utility.yul\":10308:10309   */\n      0x01\n        /* \"#utility.yul\":10300:10306   */\n      dup3\n        /* \"#utility.yul\":10296:10310   */\n      add\n        /* \"#utility.yul\":10286:10310   */\n      swap2\n      pop\n        /* \"#utility.yul\":10355:10357   */\n      0x20\n        /* \"#utility.yul\":10344:10353   */\n      dup6\n        /* \"#utility.yul\":10340:10358   */\n      add\n        /* \"#utility.yul\":10327:10358   */\n      swap5\n      pop\n        /* \"#utility.yul\":10201:10205   */\n      0x20\n        /* \"#utility.yul\":10198:10199   */\n      dup2\n        /* \"#utility.yul\":10194:10206   */\n      add\n        /* \"#utility.yul\":10189:10206   */\n      swap1\n      pop\n        /* \"#utility.yul\":10164:10372   */\n      jump(tag_200)\n    tag_202:\n        /* \"#utility.yul\":10400:10406   */\n      dup7\n        /* \"#utility.yul\":10391:10398   */\n      dup4\n        /* \"#utility.yul\":10388:10407   */\n      lt\n        /* \"#utility.yul\":10385:10564   */\n      iszero\n      tag_203\n      jumpi\n        /* \"#utility.yul\":10458:10467   */\n      dup5\n        /* \"#utility.yul\":10453:10456   */\n      dup10\n        /* \"#utility.yul\":10449:10468   */\n      add\n        /* \"#utility.yul\":10443:10469   */\n      mload\n        /* \"#utility.yul\":10501:10549   */\n      tag_204\n        /* \"#utility.yul\":10543:10547   */\n      0x1f\n        /* \"#utility.yul\":10535:10541   */\n      dup10\n        /* \"#utility.yul\":10531:10548   */\n      and\n        /* \"#utility.yul\":10520:10529   */\n      dup3\n        /* \"#utility.yul\":10501:10549   */\n      tag_79\n      jump\t// in\n    tag_204:\n        /* \"#utility.yul\":10493:10499   */\n      dup4\n        /* \"#utility.yul\":10486:10550   */\n      sstore\n        /* \"#utility.yul\":10408:10564   */\n      pop\n        /* \"#utility.yul\":10385:10564   */\n    tag_203:\n        /* \"#utility.yul\":10610:10611   */\n      0x01\n        /* \"#utility.yul\":10606:10607   */\n      0x02\n        /* \"#utility.yul\":10598:10604   */\n      dup9\n        /* \"#utility.yul\":10594:10608   */\n      mul\n        /* \"#utility.yul\":10590:10612   */\n      add\n        /* \"#utility.yul\":10584:10588   */\n      dup9\n        /* \"#utility.yul\":10577:10613   */\n      sstore\n        /* \"#utility.yul\":10012:10623   */\n      pop\n      pop\n      pop\n        /* \"#utility.yul\":9975:10862   */\n    tag_195:\n      pop\n        /* \"#utility.yul\":9565:10868   */\n      pop\n      pop\n      pop\n        /* \"#utility.yul\":9473:10868   */\n      pop\n      pop\n      jump\t// out\n\n    auxdata: 0xa26469706673582212204389b5a2a4a6144508e67ce89a1197251a99302d9f6ae83066662f1d9437c66964736f6c634300081e0033\n}\n",
				"bytecode": {
					"linkReferences": {},
					"object": "608060405260075f553480156012575f5ffd5b506108a6806100205f395ff3fe608060405234801561000f575f5ffd5b506004361061004a575f3560e01c80630c1b7c1e1461004e578063510f17c51461006c578063802b791e1461009e578063f49fdc18146100ba575b5f5ffd5b6100566100d6565b60405161006391906102be565b60405180910390f35b61008660048036038101906100819190610312565b6100de565b604051610095939291906103ad565b60405180910390f35b6100b860048036038101906100b3919061051c565b61021f565b005b6100d460048036038101906100cf9190610312565b61029d565b005b5f5f54905090565b600181815481106100ed575f80fd5b905f5260205f2090600302015f91509050805f015490806001018054610112906105d1565b80601f016020809104026020016040519081016040528092919081815260200182805461013e906105d1565b80156101895780601f1061016057610100808354040283529160200191610189565b820191905f5260205f20905b81548152906001019060200180831161016c57829003601f168201915b50505050509080600201805461019e906105d1565b80601f01602080910402602001604051908101604052809291908181526020018280546101ca906105d1565b80156102155780601f106101ec57610100808354040283529160200191610215565b820191905f5260205f20905b8154815290600101906020018083116101f857829003601f168201915b5050505050905083565b6001604051806060016040528085815260200184815260200183815250908060018154018082558091505060019003905f5260205f2090600302015f909190919091505f820151815f0155602082015181600101908161027f91906107a1565b50604082015181600201908161029591906107a1565b505050505050565b805f8190555050565b5f819050919050565b6102b8816102a6565b82525050565b5f6020820190506102d15f8301846102af565b92915050565b5f604051905090565b5f5ffd5b5f5ffd5b6102f1816102a6565b81146102fb575f5ffd5b50565b5f8135905061030c816102e8565b92915050565b5f60208284031215610327576103266102e0565b5b5f610334848285016102fe565b91505092915050565b5f81519050919050565b5f82825260208201905092915050565b8281835e5f83830152505050565b5f601f19601f8301169050919050565b5f61037f8261033d565b6103898185610347565b9350610399818560208601610357565b6103a281610365565b840191505092915050565b5f6060820190506103c05f8301866102af565b81810360208301526103d28185610375565b905081810360408301526103e68184610375565b9050949350505050565b5f5ffd5b5f5ffd5b7f4e487b71000000000000000000000000000000000000000000000000000000005f52604160045260245ffd5b61042e82610365565b810181811067ffffffffffffffff8211171561044d5761044c6103f8565b5b80604052505050565b5f61045f6102d7565b905061046b8282610425565b919050565b5f67ffffffffffffffff82111561048a576104896103f8565b5b61049382610365565b9050602081019050919050565b828183375f83830152505050565b5f6104c06104bb84610470565b610456565b9050828152602081018484840111156104dc576104db6103f4565b5b6104e78482856104a0565b509392505050565b5f82601f830112610503576105026103f0565b5b81356105138482602086016104ae565b91505092915050565b5f5f5f60608486031215610533576105326102e0565b5b5f610540868287016102fe565b935050602084013567ffffffffffffffff811115610561576105606102e4565b5b61056d868287016104ef565b925050604084013567ffffffffffffffff81111561058e5761058d6102e4565b5b61059a868287016104ef565b9150509250925092565b7f4e487b71000000000000000000000000000000000000000000000000000000005f52602260045260245ffd5b5f60028204905060018216806105e857607f821691505b6020821081036105fb576105fa6105a4565b5b50919050565b5f819050815f5260205f209050919050565b5f6020601f8301049050919050565b5f82821b905092915050565b5f6008830261065d7fffffffffffffffffffffffffffffffffffffffffffffffffffffffffffffffff82610622565b6106678683610622565b95508019841693508086168417925050509392505050565b5f819050919050565b5f6106a261069d610698846102a6565b61067f565b6102a6565b9050919050565b5f819050919050565b6106bb83610688565b6106cf6106c7826106a9565b84845461062e565b825550505050565b5f5f905090565b6106e66106d7565b6106f18184846106b2565b505050565b5b81811015610714576107095f826106de565b6001810190506106f7565b5050565b601f8211156107595761072a81610601565b61073384610613565b81016020851015610742578190505b61075661074e85610613565b8301826106f6565b50505b505050565b5f82821c905092915050565b5f6107795f198460080261075e565b1980831691505092915050565b5f610791838361076a565b9150826002028217905092915050565b6107aa8261033d565b67ffffffffffffffff8111156107c3576107c26103f8565b5b6107cd82546105d1565b6107d8828285610718565b5f60209050601f831160018114610809575f84156107f7578287015190505b6108018582610786565b865550610868565b601f19841661081786610601565b5f5b8281101561083e57848901518255600182019150602085019450602081019050610819565b8683101561085b5784890151610857601f89168261076a565b8355505b6001600288020188555050505b50505050505056fea26469706673582212204389b5a2a4a6144508e67ce89a1197251a99302d9f6ae83066662f1d9437c66964736f6c634300081e0033",
					"opcodes": "PUSH1 0x80 PUSH1 0x40 MSTORE PUSH1 0x7 PUSH0 SSTORE CALLVALUE DUP1 ISZERO PUSH1 0x12 JUMPI PUSH0 PUSH0 REVERT JUMPDEST POP PUSH2 0x8A6 DUP1 PUSH2 0x20 PUSH0 CODECOPY PUSH0 RETURN INVALID PUSH1 0x80 PUSH1 0x40 MSTORE CALLVALUE DUP1 ISZERO PUSH2 0xF JUMPI PUSH0 PUSH0 REVERT JUMPDEST POP PUSH1 0x4 CALLDATASIZE LT PUSH2 0x4A JUMPI PUSH0 CALLDATALOAD PUSH1 0xE0 SHR DUP1 PUSH4 0xC1B7C1E EQ PUSH2 0x4E JUMPI DUP1 PUSH4 0x510F17C5 EQ PUSH2 0x6C JUMPI DUP1 PUSH4 0x802B791E EQ PUSH2 0x9E JUMPI DUP1 PUSH4 0xF49FDC18 EQ PUSH2 0xBA JUMPI JUMPDEST PUSH0 PUSH0 REVERT JUMPDEST PUSH2 0x56 PUSH2 0xD6 JUMP JUMPDEST PUSH1 0x40 MLOAD PUSH2 0x63 SWAP2 SWAP1 PUSH2 0x2BE JUMP JUMPDEST PUSH1 0x40 MLOAD DUP1 SWAP2 SUB SWAP1 RETURN JUMPDEST PUSH2 0x86 PUSH1 0x4 DUP1 CALLDATASIZE SUB DUP2 ADD SWAP1 PUSH2 0x81 SWAP2 SWAP1 PUSH2 0x312 JUMP JUMPDEST PUSH2 0xDE JUMP JUMPDEST PUSH1 0x40 MLOAD PUSH2 0x95 SWAP4 SWAP3 SWAP2 SWAP1 PUSH2 0x3AD JUMP JUMPDEST PUSH1 0x40 MLOAD DUP1 SWAP2 SUB SWAP1 RETURN JUMPDEST PUSH2 0xB8 PUSH1 0x4 DUP1 CALLDATASIZE SUB DUP2 ADD SWAP1 PUSH2 0xB3 SWAP2 SWAP1 PUSH2 0x51C JUMP JUMPDEST PUSH2 0x21F JUMP JUMPDEST STOP JUMPDEST PUSH2 0xD4 PUSH1 0x4 DUP1 CALLDATASIZE SUB DUP2 ADD SWAP1 PUSH2 0xCF SWAP2 SWAP1 PUSH2 0x312 JUMP JUMPDEST PUSH2 0x29D JUMP JUMPDEST STOP JUMPDEST PUSH0 PUSH0 SLOAD SWAP1 POP SWAP1 JUMP JUMPDEST PUSH1 0x1 DUP2 DUP2 SLOAD DUP2 LT PUSH2 0xED JUMPI PUSH0 DUP1 REVERT JUMPDEST SWAP1 PUSH0 MSTORE PUSH1 0x20 PUSH0 KECCAK256 SWAP1 PUSH1 0x3 MUL ADD PUSH0 SWAP2 POP SWAP1 POP DUP1 PUSH0 ADD SLOAD SWAP1 DUP1 PUSH1 0x1 ADD DUP1 SLOAD PUSH2 0x112 SWAP1 PUSH2 0x5D1 JUMP JUMPDEST DUP1 PUSH1 0x1F ADD PUSH1 0x20 DUP1 SWAP2 DIV MUL PUSH1 0x20 ADD PUSH1 0x40 MLOAD SWAP1 DUP2 ADD PUSH1 0x40 MSTORE DUP1 SWAP3 SWAP2 SWAP1 DUP2 DUP2 MSTORE PUSH1 0x20 ADD DUP3 DUP1 SLOAD PUSH2 0x13E SWAP1 PUSH2 0x5D1 JUMP JUMPDEST DUP1 ISZERO PUSH2 0x189 JUMPI DUP1 PUSH1 0x1F LT PUSH2 0x160 JUMPI PUSH2 0x100 DUP1 DUP4 SLOAD DIV MUL DUP4 MSTORE SWAP2 PUSH1 0x20 ADD SWAP2 PUSH2 0x189 JUMP JUMPDEST DUP3 ADD SWAP2 SWAP1 PUSH0 MSTORE PUSH1 0x20 PUSH0 KECCAK256 SWAP1 JUMPDEST DUP2 SLOAD DUP2 MSTORE SWAP1 PUSH1 0x1 ADD SWAP1 PUSH1 0x20 ADD DUP1 DUP4 GT PUSH2 0x16C JUMPI DUP3 SWAP1 SUB PUSH1 0x1F AND DUP3 ADD SWAP2 JUMPDEST POP POP POP POP POP SWAP1 DUP1 PUSH1 0x2 ADD DUP1 SLOAD PUSH2 0x19E SWAP1 PUSH2 0x5D1 JUMP JUMPDEST DUP1 PUSH1 0x1F ADD PUSH1 0x20 DUP1 SWAP2 DIV MUL PUSH1 0x20 ADD PUSH1 0x40 MLOAD SWAP1 DUP2 ADD PUSH1 0x40 MSTORE DUP1 SWAP3 SWAP2 SWAP1 DUP2 DUP2 MSTORE PUSH1 0x20 ADD DUP3 DUP1 SLOAD PUSH2 0x1CA SWAP1 PUSH2 0x5D1 JUMP JUMPDEST DUP1 ISZERO PUSH2 0x215 JUMPI DUP1 PUSH1 0x1F LT PUSH2 0x1EC JUMPI PUSH2 0x100 DUP1 DUP4 SLOAD DIV MUL DUP4 MSTORE SWAP2 PUSH1 0x20 ADD SWAP2 PUSH2 0x215 JUMP JUMPDEST DUP3 ADD SWAP2 SWAP1 PUSH0 MSTORE PUSH1 0x20 PUSH0 KECCAK256 SWAP1 JUMPDEST DUP2 SLOAD DUP2 MSTORE SWAP1 PUSH1 0x1 ADD SWAP1 PUSH1 0x20 ADD DUP1 DUP4 GT PUSH2 0x1F8 JUMPI DUP3 SWAP1 SUB PUSH1 0x1F AND DUP3 ADD SWAP2 JUMPDEST POP POP POP POP POP SWAP1 POP DUP4 JUMP JUMPDEST PUSH1 0x1 PUSH1 0x40 MLOAD DUP1 PUSH1 0x60 ADD PUSH1 0x40 MSTORE DUP1 DUP6 DUP2 MSTORE PUSH1 0x20 ADD DUP5 DUP2 MSTORE PUSH1 0x20 ADD DUP4 DUP2 MSTORE POP SWAP1 DUP1 PUSH1 0x1 DUP2 SLOAD ADD DUP1 DUP3 SSTORE DUP1 SWAP2 POP POP PUSH1 0x1 SWAP1 SUB SWAP1 PUSH0 MSTORE PUSH1 0x20 PUSH0 KECCAK256 SWAP1 PUSH1 0x3 MUL ADD PUSH0 SWAP1 SWAP2 SWAP1 SWAP2 SWAP1 SWAP2 POP PUSH0 DUP3 ADD MLOAD DUP2 PUSH0 ADD SSTORE PUSH1 0x20 DUP3 ADD MLOAD DUP2 PUSH1 0x1 ADD SWAP1 DUP2 PUSH2 0x27F SWAP2 SWAP1 PUSH2 0x7A1 JUMP JUMPDEST POP PUSH1 0x40 DUP3 ADD MLOAD DUP2 PUSH1 0x2 ADD SWAP1 DUP2 PUSH2 0x295 SWAP2 SWAP1 PUSH2 0x7A1 JUMP JUMPDEST POP POP POP POP POP POP JUMP JUMPDEST DUP1 PUSH0 DUP2 SWAP1 SSTORE POP POP JUMP JUMPDEST PUSH0 DUP2 SWAP1 POP SWAP2 SWAP1 POP JUMP JUMPDEST PUSH2 0x2B8 DUP2 PUSH2 0x2A6 JUMP JUMPDEST DUP3 MSTORE POP POP JUMP JUMPDEST PUSH0 PUSH1 0x20 DUP3 ADD SWAP1 POP PUSH2 0x2D1 PUSH0 DUP4 ADD DUP5 PUSH2 0x2AF JUMP JUMPDEST SWAP3 SWAP2 POP POP JUMP JUMPDEST PUSH0 PUSH1 0x40 MLOAD SWAP1 POP SWAP1 JUMP JUMPDEST PUSH0 PUSH0 REVERT JUMPDEST PUSH0 PUSH0 REVERT JUMPDEST PUSH2 0x2F1 DUP2 PUSH2 0x2A6 JUMP JUMPDEST DUP2 EQ PUSH2 0x2FB JUMPI PUSH0 PUSH0 REVERT JUMPDEST POP JUMP JUMPDEST PUSH0 DUP2 CALLDATALOAD SWAP1 POP PUSH2 0x30C DUP2 PUSH2 0x2E8 JUMP JUMPDEST SWAP3 SWAP2 POP POP JUMP JUMPDEST PUSH0 PUSH1 0x20 DUP3 DUP5 SUB SLT ISZERO PUSH2 0x327 JUMPI PUSH2 0x326 PUSH2 0x2E0 JUMP JUMPDEST JUMPDEST PUSH0 PUSH2 0x334 DUP5 DUP3 DUP6 ADD PUSH2 0x2FE JUMP JUMPDEST SWAP2 POP POP SWAP3 SWAP2 POP POP JUMP JUMPDEST PUSH0 DUP2 MLOAD SWAP1 POP SWAP2 SWAP1 POP JUMP JUMPDEST PUSH0 DUP3 DUP3 MSTORE PUSH1 0x20 DUP3 ADD SWAP1 POP SWAP3 SWAP2 POP POP JUMP JUMPDEST DUP3 DUP2 DUP4 MCOPY PUSH0 DUP4 DUP4 ADD MSTORE POP POP POP JUMP JUMPDEST PUSH0 PUSH1 0x1F NOT PUSH1 0x1F DUP4 ADD AND SWAP1 POP SWAP2 SWAP1 POP JUMP JUMPDEST PUSH0 PUSH2 0x37F DUP3 PUSH2 0x33D JUMP JUMPDEST PUSH2 0x389 DUP2 DUP6 PUSH2 0x347 JUMP JUMPDEST SWAP4 POP PUSH2 0x399 DUP2 DUP6 PUSH1 0x20 DUP7 ADD PUSH2 0x357 JUMP JUMPDEST PUSH2 0x3A2 DUP2 PUSH2 0x365 JUMP JUMPDEST DUP5 ADD SWAP2 POP POP SWAP3 SWAP2 POP POP JUMP JUMPDEST PUSH0 PUSH1 0x60 DUP3 ADD SWAP1 POP PUSH2 0x3C0 PUSH0 DUP4 ADD DUP7 PUSH2 0x2AF JUMP JUMPDEST DUP2 DUP2 SUB PUSH1 0x20 DUP4 ADD MSTORE PUSH2 0x3D2 DUP2 DUP6 PUSH2 0x375 JUMP JUMPDEST SWAP1 POP DUP2 DUP2 SUB PUSH1 0x40 DUP4 ADD MSTORE PUSH2 0x3E6 DUP2 DUP5 PUSH2 0x375 JUMP JUMPDEST SWAP1 POP SWAP5 SWAP4 POP POP POP POP JUMP JUMPDEST PUSH0 PUSH0 REVERT JUMPDEST PUSH0 PUSH0 REVERT JUMPDEST PUSH32 0x4E487B7100000000000000000000000000000000000000000000000000000000 PUSH0 MSTORE PUSH1 0x41 PUSH1 0x4 MSTORE PUSH1 0x24 PUSH0 REVERT JUMPDEST PUSH2 0x42E DUP3 PUSH2 0x365 JUMP JUMPDEST DUP2 ADD DUP2 DUP2 LT PUSH8 0xFFFFFFFFFFFFFFFF DUP3 GT OR ISZERO PUSH2 0x44D JUMPI PUSH2 0x44C PUSH2 0x3F8 JUMP JUMPDEST JUMPDEST DUP1 PUSH1 0x40 MSTORE POP POP POP JUMP JUMPDEST PUSH0 PUSH2 0x45F PUSH2 0x2D7 JUMP JUMPDEST SWAP1 POP PUSH2 0x46B DUP3 DUP3 PUSH2 0x425 JUMP JUMPDEST SWAP2 SWAP1 POP JUMP JUMPDEST PUSH0 PUSH8 0xFFFFFFFFFFFFFFFF DUP3 GT ISZERO PUSH2 0x48A JUMPI PUSH2 0x489 PUSH2 0x3F8 JUMP JUMPDEST JUMPDEST PUSH2 0x493 DUP3 PUSH2 0x365 JUMP JUMPDEST SWAP1 POP PUSH1 0x20 DUP2 ADD SWAP1 POP SWAP2 SWAP1 POP JUMP JUMPDEST DUP3 DUP2 DUP4 CALLDATACOPY PUSH0 DUP4 DUP4 ADD MSTORE POP POP POP JUMP JUMPDEST PUSH0 PUSH2 0x4C0 PUSH2 0x4BB DUP5 PUSH2 0x470 JUMP JUMPDEST PUSH2 0x456 JUMP JUMPDEST SWAP1 POP DUP3 DUP2 MSTORE PUSH1 0x20 DUP2 ADD DUP5 DUP5 DUP5 ADD GT ISZERO PUSH2 0x4DC JUMPI PUSH2 0x4DB PUSH2 0x3F4 JUMP JUMPDEST JUMPDEST PUSH2 0x4E7 DUP5 DUP3 DUP6 PUSH2 0x4A0 JUMP JUMPDEST POP SWAP4 SWAP3 POP POP POP JUMP JUMPDEST PUSH0 DUP3 PUSH1 0x1F DUP4 ADD SLT PUSH2 0x503 JUMPI PUSH2 0x502 PUSH2 0x3F0 JUMP JUMPDEST JUMPDEST DUP2 CALLDATALOAD PUSH2 0x513 DUP5 DUP3 PUSH1 0x20 DUP7 ADD PUSH2 0x4AE JUMP JUMPDEST SWAP2 POP POP SWAP3 SWAP2 POP POP JUMP JUMPDEST PUSH0 PUSH0 PUSH0 PUSH1 0x60 DUP5 DUP7 SUB SLT ISZERO PUSH2 0x533 JUMPI PUSH2 0x532 PUSH2 0x2E0 JUMP JUMPDEST JUMPDEST PUSH0 PUSH2 0x540 DUP7 DUP3 DUP8 ADD PUSH2 0x2FE JUMP JUMPDEST SWAP4 POP POP PUSH1 0x20 DUP5 ADD CALLDATALOAD PUSH8 0xFFFFFFFFFFFFFFFF DUP2 GT ISZERO PUSH2 0x561 JUMPI PUSH2 0x560 PUSH2 0x2E4 JUMP JUMPDEST JUMPDEST PUSH2 0x56D DUP7 DUP3 DUP8 ADD PUSH2 0x4EF JUMP JUMPDEST SWAP3 POP POP PUSH1 0x40 DUP5 ADD CALLDATALOAD PUSH8 0xFFFFFFFFFFFFFFFF DUP2 GT ISZERO PUSH2 0x58E JUMPI PUSH2 0x58D PUSH2 0x2E4 JUMP JUMPDEST JUMPDEST PUSH2 0x59A DUP7 DUP3 DUP8 ADD PUSH2 0x4EF JUMP JUMPDEST SWAP2 POP POP SWAP3 POP SWAP3 POP SWAP3 JUMP JUMPDEST PUSH32 0x4E487B7100000000000000000000000000000000000000000000000000000000 PUSH0 MSTORE PUSH1 0x22 PUSH1 0x4 MSTORE PUSH1 0x24 PUSH0 REVERT JUMPDEST PUSH0 PUSH1 0x2 DUP3 DIV SWAP1 POP PUSH1 0x1 DUP3 AND DUP1 PUSH2 0x5E8 JUMPI PUSH1 0x7F DUP3 AND SWAP2 POP JUMPDEST PUSH1 0x20 DUP3 LT DUP2 SUB PUSH2 0x5FB JUMPI PUSH2 0x5FA PUSH2 0x5A4 JUMP JUMPDEST JUMPDEST POP SWAP2 SWAP1 POP JUMP JUMPDEST PUSH0 DUP2 SWAP1 POP DUP2 PUSH0 MSTORE PUSH1 0x20 PUSH0 KECCAK256 SWAP1 POP SWAP2 SWAP1 POP JUMP JUMPDEST PUSH0 PUSH1 0x20 PUSH1 0x1F DUP4 ADD DIV SWAP1 POP SWAP2 SWAP1 POP JUMP JUMPDEST PUSH0 DUP3 DUP3 SHL SWAP1 POP SWAP3 SWAP2 POP POP JUMP JUMPDEST PUSH0 PUSH1 0x8 DUP4 MUL PUSH2 0x65D PUSH32 0xFFFFFFFFFFFFFFFFFFFFFFFFFFFFFFFFFFFFFFFFFFFFFFFFFFFFFFFFFFFFFFFF DUP3 PUSH2 0x622 JUMP JUMPDEST PUSH2 0x667 DUP7 DUP4 PUSH2 0x622 JUMP JUMPDEST SWAP6 POP DUP1 NOT DUP5 AND SWAP4 POP DUP1 DUP7 AND DUP5 OR SWAP3 POP POP POP SWAP4 SWAP3 POP POP POP JUMP JUMPDEST PUSH0 DUP2 SWAP1 POP SWAP2 SWAP1 POP JUMP JUMPDEST PUSH0 PUSH2 0x6A2 PUSH2 0x69D PUSH2 0x698 DUP5 PUSH2 0x2A6 JUMP JUMPDEST PUSH2 0x67F JUMP JUMPDEST PUSH2 0x2A6 JUMP JUMPDEST SWAP1 POP SWAP2 SWAP1 POP JUMP JUMPDEST PUSH0 DUP2 SWAP1 POP SWAP2 SWAP1 POP JUMP JUMPDEST PUSH2 0x6BB DUP4 PUSH2 0x688 JUMP JUMPDEST PUSH2 0x6CF PUSH2 0x6C7 DUP3 PUSH2 0x6A9 JUMP JUMPDEST DUP5 DUP5 SLOAD PUSH2 0x62E JUMP JUMPDEST DUP3 SSTORE POP POP POP POP JUMP JUMPDEST PUSH0 PUSH0 SWAP1 POP SWAP1 JUMP JUMPDEST PUSH2 0x6E6 PUSH2 0x6D7 JUMP JUMPDEST PUSH2 0x6F1 DUP2 DUP5 DUP5 PUSH2 0x6B2 JUMP JUMPDEST POP POP POP JUMP JUMPDEST JUMPDEST DUP2 DUP2 LT ISZERO PUSH2 0x714 JUMPI PUSH2 0x709 PUSH0 DUP3 PUSH2 0x6DE JUMP JUMPDEST PUSH1 0x1 DUP2 ADD SWAP1 POP PUSH2 0x6F7 JUMP JUMPDEST POP POP JUMP JUMPDEST PUSH1 0x1F DUP3 GT ISZERO PUSH2 0x759 JUMPI PUSH2 0x72A DUP2 PUSH2 0x601 JUMP JUMPDEST PUSH2 0x733 DUP5 PUSH2 0x613 JUMP JUMPDEST DUP2 ADD PUSH1 0x20 DUP6 LT ISZERO PUSH2 0x742 JUMPI DUP2 SWAP1 POP JUMPDEST PUSH2 0x756 PUSH2 0x74E DUP6 PUSH2 0x613 JUMP JUMPDEST DUP4 ADD DUP3 PUSH2 0x6F6 JUMP JUMPDEST POP POP JUMPDEST POP POP POP JUMP JUMPDEST PUSH0 DUP3 DUP3 SHR SWAP1 POP SWAP3 SWAP2 POP POP JUMP JUMPDEST PUSH0 PUSH2 0x779 PUSH0 NOT DUP5 PUSH1 0x8 MUL PUSH2 0x75E JUMP JUMPDEST NOT DUP1 DUP4 AND SWAP2 POP POP SWAP3 SWAP2 POP POP JUMP JUMPDEST PUSH0 PUSH2 0x791 DUP4 DUP4 PUSH2 0x76A JUMP JUMPDEST SWAP2 POP DUP3 PUSH1 0x2 MUL DUP3 OR SWAP1 POP SWAP3 SWAP2 POP POP JUMP JUMPDEST PUSH2 0x7AA DUP3 PUSH2 0x33D JUMP JUMPDEST PUSH8 0xFFFFFFFFFFFFFFFF DUP2 GT ISZERO PUSH2 0x7C3 JUMPI PUSH2 0x7C2 PUSH2 0x3F8 JUMP JUMPDEST JUMPDEST PUSH2 0x7CD DUP3 SLOAD PUSH2 0x5D1 JUMP JUMPDEST PUSH2 0x7D8 DUP3 DUP3 DUP6 PUSH2 0x718 JUMP JUMPDEST PUSH0 PUSH1 0x20 SWAP1 POP PUSH1 0x1F DUP4 GT PUSH1 0x1 DUP2 EQ PUSH2 0x809 JUMPI PUSH0 DUP5 ISZERO PUSH2 0x7F7 JUMPI DUP3 DUP8 ADD MLOAD SWAP1 POP JUMPDEST PUSH2 0x801 DUP6 DUP3 PUSH2 0x786 JUMP JUMPDEST DUP7 SSTORE POP PUSH2 0x868 JUMP JUMPDEST PUSH1 0x1F NOT DUP5 AND PUSH2 0x817 DUP7 PUSH2 0x601 JUMP JUMPDEST PUSH0 JUMPDEST DUP3 DUP2 LT ISZERO PUSH2 0x83E JUMPI DUP5 DUP10 ADD MLOAD DUP3 SSTORE PUSH1 0x1 DUP3 ADD SWAP2 POP PUSH1 0x20 DUP6 ADD SWAP5 POP PUSH1 0x20 DUP2 ADD SWAP1 POP PUSH2 0x819 JUMP JUMPDEST DUP7 DUP4 LT ISZERO PUSH2 0x85B JUMPI DUP5 DUP10 ADD MLOAD PUSH2 0x857 PUSH1 0x1F DUP10 AND DUP3 PUSH2 0x76A JUMP JUMPDEST DUP4 SSTORE POP JUMPDEST PUSH1 0x1 PUSH1 0x2 DUP9 MUL ADD DUP9 SSTORE POP POP POP JUMPDEST POP POP POP POP POP POP JUMP INVALID LOG2 PUSH5 0x6970667358 0x22 SLT KECCAK256 NUMBER DUP10 0xB5 LOG2 LOG4 0xA6 EQ GASLIMIT ADDMOD DUPN 0x7C 0xE8 SWAP11 GT SWAP8 0x25 BYTE SWAP10 ADDRESS 0x2D SWAP16 PUSH11 0xE83066662F1D9437C66964 PUSH20 0x6F6C634300081E00330000000000000000000000 "
				},
				"gasEstimates": {
					"creation": {
						"codeDepositCost": "442800",
						"executionCost": "22583",
						"totalCost": "465383"
					},
					"external": {
						"addMorePersons(uint256,string,string)": "infinite",
						"changer(uint256)": "22558",
						"display()": "2409",
						"listOfPersons(uint256)": "infinite"
					}
				},
				"methodIdentifiers": {
					"addMorePersons(uint256,string,string)": "802b791e",
					"changer(uint256)": "f49fdc18",
					"display()": "0c1b7c1e",
					"listOfPersons(uint256)": "510f17c5"
				}
			},
			"storageLayout": {
				"storage": [
					{
						"astId": 4,
						"contract": "WorkStorage.sol:WorkStorage",
						"label": "coolNumber",
						"offset": 0,
						"slot": "0",
						"type": "t_uint256"
					},
					{
						"astId": 15,
						"contract": "WorkStorage.sol:WorkStorage",
						"label": "listOfPersons",
						"offset": 0,
						"slot": "1",
						"type": "t_array(t_struct(Person)11_storage)dyn_storage"
					}
				],
				"types": {
					"t_array(t_struct(Person)11_storage)dyn_storage": {
						"base": "t_struct(Person)11_storage",
						"encoding": "dynamic_array",
						"label": "struct WorkStorage.Person[]",
						"numberOfBytes": "32"
					},
					"t_string_storage": {
						"encoding": "bytes",
						"label": "string",
						"numberOfBytes": "32"
					},
					"t_struct(Person)11_storage": {
						"encoding": "inplace",
						"label": "struct WorkStorage.Person",
						"members": [
							{
								"astId": 6,
								"contract": "WorkStorage.sol:WorkStorage",
								"label": "myFavoriteNumber",
								"offset": 0,
								"slot": "0",
								"type": "t_uint256"
							},
							{
								"astId": 8,
								"contract": "WorkStorage.sol:WorkStorage",
								"label": "name",
								"offset": 0,
								"slot": "1",
								"type": "t_string_storage"
							},
							{
								"astId": 10,
								"contract": "WorkStorage.sol:WorkStorage",
								"label": "color",
								"offset": 0,
								"slot": "2",
								"type": "t_string_storage"
							}
						],
						"numberOfBytes": "96"
					},
					"t_uint256": {
						"encoding": "inplace",
						"label": "uint256",
						"numberOfBytes": "32"
					}
				}
			},
			"userdoc": {
				"kind": "user",
				"methods": {},
				"version": 1
			}
		}
	}
}